{
  "contractName": "Strings",
  "abi": [
    {
      "inputs": [
        {
          "internalType": "string",
          "name": "str",
          "type": "string"
        }
      ],
      "name": "length",
      "outputs": [
        {
          "internalType": "uint256",
          "name": "",
          "type": "uint256"
        }
      ],
      "stateMutability": "pure",
      "type": "function",
      "constant": true
    },
    {
      "inputs": [
        {
          "internalType": "string",
          "name": "str1",
          "type": "string"
        },
        {
          "internalType": "string",
          "name": "str2",
          "type": "string"
        }
      ],
      "name": "concatenate",
      "outputs": [
        {
          "internalType": "string",
          "name": "",
          "type": "string"
        }
      ],
      "stateMutability": "pure",
      "type": "function",
      "constant": true
    }
  ],
  "bytecode": "0x608060405234801561001057600080fd5b50610476806100206000396000f3fe608060405234801561001057600080fd5b50600436106100365760003560e01c8063266001d31461003b578063436a66e714610206575b600080fd5b61018b6004803603604081101561005157600080fd5b810190808035906020019064010000000081111561006e57600080fd5b82018360208201111561008057600080fd5b803590602001918460018302840111640100000000831117156100a257600080fd5b91908080601f016020809104026020016040519081016040528093929190818152602001838380828437600081840152601f19601f8201169050808301925050505050505091929192908035906020019064010000000081111561010557600080fd5b82018360208201111561011757600080fd5b8035906020019184600183028401116401000000008311171561013957600080fd5b91908080601f016020809104026020016040519081016040528093929190818152602001838380828437600081840152601f19601f8201169050808301925050505050505091929192905050506102d5565b6040518080602001828103825283818151815260200191508051906020019080838360005b838110156101cb5780820151818401526020810190506101b0565b50505050905090810190601f1680156101f85780820380516001836020036101000a031916815260200191505b509250505060405180910390f35b6102bf6004803603602081101561021c57600080fd5b810190808035906020019064010000000081111561023957600080fd5b82018360208201111561024b57600080fd5b8035906020019184600183028401116401000000008311171561026d57600080fd5b91908080601f016020809104026020016040519081016040528093929190818152602001838380828437600081840152601f19601f82011690508083019250505050505050919291929050505061042f565b6040518082815260200191505060405180910390f35b60608083905060608390506060815183510167ffffffffffffffff811180156102fd57600080fd5b506040519080825280601f01601f1916602001820160405280156103305781602001600182028036833780820191505090505b50905060608190506000805b85518110156103ac5785818151811061035157fe5b602001015160f81c60f81b83838151811061036857fe5b60200101907effffffffffffffffffffffffffffffffffffffffffffffffffffffffffffff1916908160001a9053508180600101925050808060010191505061033c565b5060005b8451811015610420578481815181106103c557fe5b602001015160f81c60f81b8383815181106103dc57fe5b60200101907effffffffffffffffffffffffffffffffffffffffffffffffffffffffffffff1916908160001a905350818060010192505080806001019150506103b0565b50819550505050505092915050565b60006060829050805191505091905056fea264697066735822122095d5013b63a0e51b58ad7e634587bfdfc77ff0d8d05d7adcee574da81800380f64736f6c63430007050033",
  "immutableReferences": {},
  "source": "pragma solidity ^0.7.5;\n\ncontract Strings {\n\tfunction length(string memory str) pure public returns(uint) {\n\t\tbytes memory str_bytes = bytes(str);\n\t\treturn str_bytes.length;\n\t}\n\n\tfunction concatenate(string memory str1, string memory str2) pure public returns (string memory) {\n\t\tbytes memory str1_bytes = bytes(str1);\n\t\tbytes memory str2_bytes = bytes(str2);\n\t\tstring memory str = new string(str1_bytes.length + str2_bytes.length);\n\t\tbytes memory str_bytes = bytes(str);\n\n\t\tuint j = 0;\n\n\t\tfor(uint i = 0; i < str1_bytes.length; i++) {\n\t\t\tstr_bytes[j] = str1_bytes[i];\n\t\t\tj++;\n\t\t}\n\n\t\tfor(uint i = 0; i < str2_bytes.length; i++) {\n\t\t\tstr_bytes[j] = str2_bytes[i];\n\t\t\tj++;\n\t\t}\n\n\t\treturn string(str_bytes);\n\t}\n}",
  "sourcePath": "/Users/edsonramirez/ChainSkills/private/stringMani-dp11/contracts/Strings1.sol",
  "compiler": {
    "name": "solc",
    "version": "0.7.5+commit.eb77ed08.Emscripten.clang"
  },
  "schemaVersion": "3.3.2",
  "updatedAt": "2021-02-07T02:16:43.618Z",
  "networkType": "ethereum",
  "devdoc": {
    "kind": "dev",
    "methods": {},
    "version": 1
  },
  "userdoc": {
    "kind": "user",
    "methods": {},
    "version": 1
  }
}